:1000000010C049C029C028C027C026C025C024C0B0
:1000100023C022C021C020C01FC01EC01DC01CC0E4
:100020001BC011241FBECFE5D1E0DEBFCDBF10E065
:10003000A0E6B0E0EEE2F1E002C005900D92AC3631
:10004000B107D9F710E0ACE6B0E001C01D92AD36C3
:10005000B107E1F75BD069C0D3CF86B38170089553
:1000600086B390E0827090709595879508959BB3C4
:10007000907F9BBB9BB38F70892B8BBB0895909116
:100080006C00980F977090936C00E0E6F0E0E90F39
:10009000F11D808108951F920F920FB60F921124C7
:1000A0002F938F939F93EF93FF93E6B386B390E0E4
:1000B0008270907095958795992787FD9095E1704E
:1000C000FF27E7FDF095EE0FFF1FE80FF91FE85936
:1000D000FF4F908180916C00980F977090936C0007
:1000E0008BB3807F8BBB2BB3E0E6F0E0E90FF11D13
:1000F00080818F70822B8BBBFF91EF919F918F91AD
:100100002F910F900FBE0F901F90189580E886BD1D
:1001100016BC8FE08ABB1BBA87E088BB80E48BBF2C
:0E01200085B7836085BF7894FFCFF894FFCF3A
:0C012E0001030206040C0809FEFF020198
:00000001FF
